:020000040800F2
:10000000580700209901000817210008A71F0008C1
:1000100015210008B5090008E925000800000000C6
:100020000000000000000000000000001B2100088C
:10003000B709000800000000192100081D21000870
:10004000B3010008B3010008B3010008B3010008C0
:10005000B3010008B3010008B3010008B9090008A2
:10006000B3010008B3010008B3010008B3010008A0
:10007000B3010008B3010008B3010008B301000890
:10008000B3010008B3010008D5080008B301000857
:10009000B3010008B3010008B3010008B301000870
:1000A000B3010008B3010008B3010008B301000860
:1000B000B3010008B3010008B3010008B301000850
:1000C000B3010008B3010008B3010008B301000840
:1000D000B3010008DD250008B3010008B3010008E2
:1000E000B3010008B3010008B301000800F002F8F2
:1000F00000F043F80AA090E8000C82448344AAF17F
:100100000107DA4501D100F038F8AFF2090EBAE87C
:100110000F0013F0010F18BFFB1A43F0010318473B
:100120001026000030260000103A24BF78C878C19D
:10013000FAD8520724BF30C830C144BF04680C60ED
:10014000704700000023002400250026103A28BF35
:1001500078C1FBD8520728BF30C148BF0B60704739
:100160001FB500F06BFB04000020002102F0BEFA76
:10017000401C60601FBD10B510BD00F023FB114690
:10018000FFF7EEFF02F042FA00F04AFB03B4FFF77C
:10019000F2FF03BC00F096FB09488047094800477E
:1001A000FEE7FEE7FEE7FEE7FEE7FEE7FEE7FEE727
:1001B000FEE7FEE704480549054A064B7047000084
:1001C000BD210008ED00000858010020580700205C
:1001D00058030020580300200FB400B58DB010A9BB
:1001E000099000910B904FF0FF300A9000200C9086
:1001F000064878440690064878446A4607900F9966
:1002000009A800F0EBF80DB05DF814FB0702000040
:100210001F0200002DE9FF5F1D464FF0FF3B914696
:100220004FF000085F46D5E90146A96901987F1C97
:100230008847296A824688470028F6D1BAF1FF3FED
:100240000CD0002E24F4C06419DD600614D5BAF178
:100250002B0F09D0BAF12D0F0ED103E0584604B090
:10026000BDE8F09F44F48064A96901987F1C884729
:10027000761E8246002E02DDBAF1300F03D0B9F1AE
:10028000000F26D032E0A969761E01987F1C44F445
:1002900000748847002E824605DDBAF1780F06D03B
:1002A000BAF1580F03D0B9F1000F10D01EE0B9F128
:1002B000000F02D0B9F1100F18D1A969761E01986C
:1002C0007F1C24F4007488478246102002E0082036
:1002D00000E00A20814609E0A96908FB0908761EAA
:1002E00001987F1C44F4007488478246002E05DD87
:1002F0004946504600F05EF80028EDDAE9690198B9
:100300008847A00502D46FF00100A8E7E00725D1D7
:10031000600613D5600502D5C8F1000000E0404634
:1003200029680A1D2A600968220501D5087015E0B0
:10033000220701D5088011E008600FE02868011D40
:1003400029600068210502D580F8008006E02107B9
:1003500002D5A0F8008001E0C0F8008038467EE7B2
:100360004FF0000200B5134694469646203922BF4E
:10037000A0E80C50A0E80C50B1F12001BFF4F7AF99
:10038000090728BFA0E80C5048BF0CC05DF804EB7B
:10039000890028BF40F8042B08BF704748BF20F8E9
:1003A000022B11F0804F18BF00F8012B70477047E7
:1003B000704770473A2800D2303820F02002412A96
:1003C00001D3A2F13700884201D34FF0FF307047CC
:1003D000026811441378016018467047D1600549DE
:1003E0007944516104497944116200211161114637
:1003F00000F02EB8EDFFFFFF53000000426842B14D
:10040000016811F8013B23B1521EC0E900121846E1
:1004100070470121C160881E704742685AB1C368A5
:10042000016843B983688B4205D0491E521CC0E95C
:100430000012002070474FF0FF30704710B504469F
:1004400000F0E6F90068005D00F0010010BD00005A
:100450002DE9F34F4FF0000A0C4656468DB00120AF
:100460000C9001F10C000B9062690B9801219047F0
:10047000051E2DD0252D2CD0216A8847C0B1626978
:100480000B9801219047216A88470028F7D16269BB
:10049000411E0B98904700E0761CA1690D98884793
:1004A000216A88470028F7D1E1690D988847DBE782
:1004B000A1690D988847A842074601D1761CD3E769
:1004C000E1690D9888477F1C02D1BAF1000F6FD007
:1004D0006BE162690B9800273D46394690472A2810
:1004E00004D162690B98012190470125DFF8D08281
:1004F00062690B9801219047A0F130010A290AD2C4
:100500004745E5DC07EB870100EB4107303FDFD4CF
:1005100045F01005ECE7E90601D46FF000476C28C0
:100520000AD04C2814D0682815D06A280DD0742819
:100530001CD07A281AD01DE062690B9801219047DF
:100540006C2802D045F0040514E045F002050DE0EA
:1005500045F020050AE062690B9801219047682860
:1005600002D045F0080505E045F4006562690B9886
:1005700001219047C4E9015765283DD019DC58286E
:100580007AD00CDC452837D004DC252826D0412839
:100590009ED131E046282FD0472899D12CE05B2806
:1005A00077D0612828D063287CD0642823D15AE0F2
:1005B000F6E06F2848D008DC66281DD067281BD0DD
:1005C000692821D06E2816D127E0702845D07328DD
:1005D00068D0752847D078280DD14DE0A1690D98D5
:1005E0008847252805463FF469AFE1690D9888479B
:1005F0006D1C3FF46AAFD8E00D9923466A466FF050
:100600000100AFF30080C5E045F0400023464FF005
:1006100000026060A80736D43EE0E8077FF447AFE9
:100620002068011D21600068290501D506701BE7BF
:10063000290701D5068017E7A90703D5F117C0E9F7
:10064000006111E706600FE745F0400023464FF0D8
:1006500008026060A80716D41EE040F60E0125EAE5
:100660000100606016E045F0400023464FF00A02AA
:100670006060A80707D40FE045F040006060A8075D
:1006800008D5234610220D996FF00100AFF30080CA
:1006900080E007E0102223460D996FF00100FFF77C
:1006A000B9FD77E04FF0000963284F46C8464B4636
:1006B000CB4602D05B2806D038E0E80601D4012002
:1006C000A060012732E06269D4F80CB00B980121D8
:1006D00090475E2807D14FF0010949466269D4F876
:1006E0000CB00B989047216939B900210A4603AB39
:1006F00043F82120491C0829FADBD8B3216949B302
:1007000008F1010862690B98012190475D28F4D136
:10071000B9F1000F09D0002003A951F82020D243DD
:1007200041F82020401C0828F7DB03AB2069002893
:1007300020794FEA40701ED05B462246CDF80080FB
:10074000CDE901970D9900286FF0010020DAAFF391
:1007500000801FE0C11703AA00EBD1614B1121F00B
:100760001F0102EB8302411A1368012088400343F2
:100770001360C7E719E00D99224600286FF00100C9
:10078000009702DAAFF3008004E0AFF3008001E0ED
:10079000AFF3008000280ADA401C06D10C9820B183
:1007A0004FF0FF300FB0BDE8F08F5046FAE7E90791
:1007B00001D10AF1010A064400200C9054E6000021
:1007C000CCCCCC0C754600F035F8AE460500694639
:1007D000534620F00700854618B020B5FFF7EAFC25
:1007E000BDE820404FF000064FF000074FF0000832
:1007F0004FF0000B21F00701AC46ACE8C009ACE8B3
:10080000C009ACE8C009ACE8C0098D4670470000DB
:1008100010B500F013F8001D10BD00BFD11E000080
:1008200010B50446AFF300802046BDE81040FFF746
:10083000ADBC000000487047F4000020004870473D
:10084000140100204FF0013C50F8042B51F8043BF8
:100850009A4221D1A2EB0C03934313EACC1317D194
:1008600050F8042B51F8043B9A4215D1A2EB0C032B
:10087000934313EACC130BD150F8042B51F8043BEB
:100880009A4209D1A2EB0C03934313EACC13DBD0B9
:100890004FF00000704700BFD01A01BAB1FA81F1E1
:1008A00001F0180122FA01F0CB40C1F12001DBB2C6
:1008B000C0B2C01A2CFA01F3D11A914311EAC31144
:1008C000E6D1704701491820ABBEFEE726000200C2
:1008D00070470000014800F0F2B80000240000203A
:1008E00070B5044600688168C943C90717D181689B
:1008F00021F00101816000F00FFC05460AE000BF15
:1009000000F00AFC401B022804D920688068C0431C
:10091000C00706D020688068C043C007F0D0002020
:1009200070BDA06A40F01000A062E06A40F00100D3
:10093000E062012070BD0000F8B500260446009674
:1009400000688168C943C9072DD0816841F0010161
:100950008160164816490068B0FBF1F000E0401EC7
:1009600000900028FBD100F0D7FB054616E000BF41
:1009700000F0D2FB401B022810D920688068C043D9
:10098000C0070BD0A06A40F01000A062E06A40F0FF
:100990000100E06284F824600120F8BD20688068CE
:1009A000C043C007E4D10020F8BD000020000020B3
:1009B00040420F00FEE77047022000F0A3BA7047E4
:1009C000F8B50024009490F824202546012A12D07E
:1009D000012280F824204A681F23072A0DD20668C6
:1009E000776B521E02EB820293409F430B68934049
:1009F0001F43776319E00220F8BD06680D2A0AD26A
:100A0000376BD21F02EB820293409F430B689340E7
:100A10001F43376309E0F76A0D3A02EB8202934005
:100A20009F430B6893401F43F7620A6807230668D9
:100A30000A2A0AD3F7680A3A02EB420293409F431C
:100A40008B6893401F43F76008E0376902EB42026E
:100A500093409F438B6893401F4337610A68102A75
:100A600001D0112A20D1124B02689A4217D1936803
:100A70001B0219D4936843F400039360096810299A
:100A800012D10C490C4A0968B1FBF2F101EB81016A
:100A9000490000E0491E00910029FBD104E0816A71
:100AA00041F020018162012480F824502046F8BDE5
:100AB000002401402000002040420F00704710B584
:100AC000044600684168890626D50168890723D550
:100AD000A16AC90603D4A16A41F40071A1628168C8
:100AE000C1F34241072910D1217B71B9416821F03E
:100AF00020014160A06A20F48070A062A06AC00456
:100B000003D4A06A40F00100A0622046FFF7D6FFA0
:100B100021686FF0120008602068416809062ED530
:100B2000016849072BD5A16AC90603D4A16A41F41B
:100B30000051A1628168C1F30231072909D04168DF
:100B4000490515D48168C1F34241072910D1217BA1
:100B500071B9416821F080014160A06A20F48050A1
:100B6000A062A06AC00503D4A06A40F00100A062A0
:100B70002046FFF724FF21686FF00C000860206812
:100B8000416849060DD50068C0070AD0A06A40F444
:100B90008030A062204600F093F821686FF00100D9
:100BA000086010BD2DE9F0414FF0000704003D46FC
:100BB0007ED0A06A002628B9E66284F82460204628
:100BC00000F080F82046FFF78BFEA16AC90600D42A
:100BD00020B1A06A40F01000A06269E0A16A21F48F
:100BE000885141F00201A1626268E169237B0A43F6
:100BF00047EA43010A43A1684FF48077B94209D01C
:100C0000012907D05FF0000194F814C0BCF1010F76
:100C100002D00AE03946F7E7F3B1A36A43F02003B4
:100C2000A362E36A43F00103E3622368D3F804C0DC
:100C30002CF4694C4CEA010CC3F804C021688B68A1
:100C4000DFF870C003EA0C0313438B60A168B9425C
:100C50000BD0012909D00CE0DFF85CC0A3690CEBD4
:100C600043330B4343F40061DFE7218A0D05A5F50B
:100C700080152168CB6A23F470032B43CB62216873
:100C800089680E4B1940914208D1E662A16A21F0B1
:100C9000020141F00101A162BDE8F081A06A20F0EB
:100CA000020040F01000A062E06A40F00100E06243
:100CB0000120F1E7FDF7E1FF00E0FFFFFE0E1FFF5F
:100CC0007047000000B585B00021009101910291AC
:100CD000039100681249884220D11248816941F489
:100CE00000718161816901F400710491816941F0B1
:100CF000040181618069694600F0040004900420C9
:100D0000009003200190084800F008F900221146E5
:100D1000122000F06DFA122000F05CFA05B000BD60
:100D200000240140001002400008014070B5044654
:100D300090F8240001280DD0012084F824002046DA
:100D4000FFF7FAFD02004FF0000005D084F8240000
:100D5000104670BD022070BDA16A40F60163994340
:100D600041F48071A162224D23682249AB4218D11F
:100D70000E6816F4702F14D0A66A46F48016A66288
:100D80000E68760505D5A66A26F4005646F4805608
:100D9000A662A66AF6040AD5E66A26F00606E662A8
:100DA00006E0A66A26F48016A6625E68E9E7E062BD
:100DB00084F824006FF0020018602068436843F054
:100DC0002003436020688368C3F34243072B05D1A7
:100DD000A84208D1096811F4702F04D0816841F449
:100DE00080118160B4E7816841F4A001F9E7000057
:100DF000002801400424014010B590F82110002281
:100E0000022905D00421816380F82020012010BD33
:100E100001680B6823F00E030B6001680B6823F078
:100E200001030B6090F84030C46B012101FA03F319
:100E3000636080F8211080F82020104610BD00006B
:100E400010B590F821100024022903D004218163F9
:100E500001243DE001680A6822F00E020A60016880
:100E60000A6822F001020A601A4A0168914201D11F
:100E7000012121E0174A1432914201D110211BE0D7
:100E8000144A2832914201D1891515E0114A3C32A9
:100E9000914201D189140FE00E4A5032914202D1A1
:100EA0004FF4803108E00B4A6432914202D14FF492
:100EB000801101E04FF08071064A083A516001212B
:100EC00080F82110002180F82010416B01B1884783
:100ED000204610BD0800024010B502280AD1810248
:100EE000064800F00BF90648012102781AB10022E9
:100EF0000270817010BD0170FBE700000008014026
:100F000000000020044910B50A68024202D00860BF
:100F1000FFF7E2FF10BD0000140401402DE9F84F77
:100F2000DFF8B891002409F1040A0AF1040B234602
:100F30000F270BF1040EC9E00125A5402A40AA4263
:100F40007DD1674ED1F804C0ACEB0608B44532D071
:100F500014DCBCF1030F3AD009DCBCF1000F2AD03D
:100F6000BCF1010F1CD0BCF1020F31D11DE0BCF16E
:100F7000110F17D0BCF1120F2AD119E0B8F5881F54
:100F800019D006DCB8F5803F15D0B8F5801F1FD109
:100F900011E0B8F5001F0ED0B8F5041F18D10AE013
:100FA000CB6815E0CB681B1D12E0CB6808330FE05F
:100FB000CB680C330CE08B682BB1012B4FF008038E
:100FC00003D0456104E0042302E0056100E0002352
:100FD000FF2A01D8064601E000F104064FEA840525
:100FE00001D9A5F12005D6F8008007FA05FC28EA0A
:100FF0000C0803FA05F548EA0508C6F800804D68B4
:10100000ED0062D5374DAE6946F00106AE61AD69BF
:1010100024F0030605F001050095334D06EB050CA1
:10102000DCF80850A607360F07FA06F825EA080587
:10103000DFF8B880404503D14FF0000817E044E0E6
:10104000DFF8AC80404502D14FF001080FE0DFF837
:10105000A480404502D14FF0020808E0DFF89880F4
:10106000404502D14FF0030801E04FF0040808FAB0
:1010700006F848EA0508CCF808804D68D9F8006001
:10108000ED034D4601D5164300E096432E604D68B2
:10109000DAF80060AD03554601D5164300E09643EB
:1010A0002E604D68DBF80060ED025D4601D5164309
:1010B00000E096432E604D68DEF80060AD02754694
:1010C00001D5164300E096432E60641C0D682A4645
:1010D000E5407FF431AFBDE8F88F00000004014027
:1010E0000000111000100240000001400008014003
:1010F000000C01400010014000140140C26821EAC8
:1011000002030A4043EA0241016170470AB10161EA
:1011100070470904FBE70000014880687047000041
:1011200014000020024881680278114481607047F1
:1011300014000020074810B5016841F0100101605B
:10114000032000F075F80F2000F006F800F024F8F6
:10115000002010BD0020024070B50D4D04464FF434
:101160007A712878B1FBF0F00A490968B1FBF0F018
:1011700000F062FB48B9102C07D200222146501E15
:1011800000F036F800206C6070BD012070BD0000DA
:1011900014000020200000200C4808B5816941F0AF
:1011A00001018161816901F001010091C16941F092
:1011B0008051C161C06900F08050009004484168CE
:1011C00021F0E06141F00071416008BD0010024073
:1011D00000000140002809DB00F01F0201219140BE
:1011E0004009800000F1E020C0F8001170470000C5
:1011F000F0B40E4B1B680C46C3F30223C3F1070582
:10120000042D00D90425191D072901D2002300E06F
:10121000DB1E012606FA05F1491E214099409E4039
:10122000761E16403143F0BC01F0DFB90CED00E052
:10123000064900F0070208684FF6FF03184040EA2D
:101240000220034A10430860704700000CED00E0E4
:101250000000FA052DE9F84305460078354CC00733
:1012600054D0E0690026C00008D4E06940F0805006
:10127000E061E069012600F0805000902E4801688E
:10128000C90512D40168804641F480710160FFF7FE
:1012900043FF074605E000BFFFF73EFFC01B642881
:1012A00023D8D8F80000C005F6D5206A10F44070A5
:1012B00021D0A98801F4407181421CD0206A1F49C5
:1012C000012220F440700A6000220A602062C007F8
:1012D00011D0FFF721FF074641F2883808E000BF30
:1012E000FFF71AFFC11B414502D90320BDE8F8836F
:1012F000206A8007F4D5206A696820F440700843AA
:1013000020621EB1E06920F08050E06128788007FB
:1013100005D56068A96820F44040084360602878DB
:10132000C00605D56068E96820F480000843606065
:101330000020DBE700100240007000404004424201
:101340002DE9F0470F46050061D0434E306800F0AC
:101350000700B84209D2306820F0070038433060F7
:10136000306800F00700B84251D128683B4C810733
:1013700012D5400703D5606840F4E06060602878CB
:10138000000703D5606840F4605060606068A96839
:1013900020F0F000084360602878C00728D0686813
:1013A000012810D02168022810D0890700292EDAE0
:1013B000616821F0030101436160FFF7ADFE8046E3
:1013C00041F288390DE021688903EFE78901EDE7F3
:1013D000FFF7A2FEA0EB0801494502D90320BDE8B2
:1013E000F0876068696800F00C00B0EB810FEFD106
:1013F000306800F00700B8420BD9306820F00700D1
:1014000038433060306800F00700B84201D0012056
:10141000E5E72878400705D56068E96820F4E060D2
:10142000084360602878000706D56068296920F4C1
:10143000605040EAC100606000F038F86168084A16
:10144000C1F30311515CC8400649086006480068B2
:10145000FFF782FE0020C2E7002002400010024099
:101460001827000820000020180000200448054923
:1014700000684968044AC1F30221515CC8407047C2
:1014800020000020001002402827000804480549D9
:1014900000684968044AC1F3C221515CC8407047E2
:1014A00020000020001002402827000812A185B06B
:1014B0000FC98DE80F0014A0144A00680490516809
:1014C000134801F00C03042B10D0082B0ED1C1F3EC
:1014D0008343C9031DF803000AD5516804AAC1F368
:1014E0004041515C0A4A5043B0FBF1F005B07047EF
:1014F00008494843FAE70000020304050607080903
:101500000A0B0C0D0E0F101001020000001002401B
:1015100000127A0000093D002DE9F84F040070D058
:101520002078C04DC00749D06868C0F38100012809
:1015300007D06868C0F38100022809D16868C00339
:1015400006D52868800339D560680028E7D035E0E3
:101550006068B0F5803F0BD010B1B0F5A02F11D06E
:10156000286820F480302860286820F4802002E079
:10157000286840F480302860606890B1FFF7CCFDA7
:1015800006460AE0286840F480202860F0E700BFA3
:10159000FFF7C2FD801B642873D828688003F7D545
:1015A0000CE0FFF7B9FD064605E000BFFFF7B4FD0C
:1015B000801B6428F0D828688003F7D420789A4EDE
:1015C00080074FF001094FF0000839D5686810F026
:1015D0000C0F07D06868C0F38100022809D1686841
:1015E000C00306D42868800714D52069012808D1D3
:1015F00010E02069B0B1C6F80090FFF78DFD0746F6
:1016000005E00AE1FFF788FDC01B0228C4D828685E
:101610008007F7D52868616920F0F80040EAC1002A
:1016200028600DE0C6F80080FFF776FD074604E06D
:10163000FFF772FDC01B022823D828688007F7D463
:10164000207800072CD57948A169D9B1C0F800905D
:10165000FFF762FD074604E0FFF75EFDC01B0228AE
:101660000FD8686A8007F7D571484FF4FA510068BF
:10167000B0FBF1F0009000BF0098411E0091FAD23B
:101680000EE080E0C0F80080FFF746FD074604E06A
:10169000FFF742FDC01B022875D8686A8007F7D49F
:1016A0002078400760D5E8690027C00008D4E869C1
:1016B00040F08050E861E869012700F08050009018
:1016C0005C480168C90513D40168834641F4807100
:1016D0000160FFF721FD824606E000BFFFF71CFD19
:1016E000A0EB0A0064284ED8DBF80000C005F5D551
:1016F000E06801280AD008B1052813D0286A20F034
:1017000001002862286A20F0040002E0286A40F004
:1017100001002862E06841F2883B98B1FFF7FCFCC9
:1017200082460BE0286A40F004002862EEE700BF22
:10173000FFF7F2FCA0EB0A0159455AD8286A800746
:10174000F6D50CE0FFF7E8FC824605E0FFF7E4FC85
:10175000A0EB0A0159454CD8286A8007F6D41FB17E
:10176000E86920F08050E861E06988B36968C1F3F6
:101770008101022944D00228C6F8608004D0FFF716
:10178000CBFC044638E034E0FFF7C6FC074604E033
:10179000FFF7C2FCC01B02282BD828688001F7D4B1
:1017A000206AB0F5803F05D16868A16820F4003058
:1017B00008436860D4E908010843696821F474119A
:1017C00008436860C6F86090FFF7A6FC044606E090
:1017D00025E000BFFFF7A0FC001B022809D82868FD
:1017E0008001F7D51BE000BFFFF796FC001B022825
:1017F00002D90320BDE8F88F28688001F4D40EE0F8
:101800000128F7D06868226A00F48031914204D13F
:10181000616A00F47010884201D00120EAE70020DC
:10182000E8E700000010024000004242800442420B
:10183000200000200070004010B5401EB0F1807FF5
:1018400001D3012010BD4FF0E02460610F2160172B
:1018500000F0CBFE0020A06107202061002010BD19
:1018600070B590F83C20012A26D0012480F83C4035
:10187000022280F83D2003685A689D6822F07006B5
:101880000A6832435A600D4B02689A4208D0B2F19E
:10189000804F05D00A4B9A4202D00A4B9A4204D19B
:1018A000496825F080031943916080F83D4000218C
:1018B00080F83C10084670BD022070BD002C01402D
:1018C000000400400008004010B5040003D094F864
:1018D0003D0010B107E0012010BD002084F83C005D
:1018E000204600F01FF8022084F83D00211D2068EA
:1018F00000F066FC012084F8460084F83E0084F87D
:101900003F0084F8400084F8410084F8420084F8E5
:10191000430084F8440084F8450084F83D0000202A
:1019200010BD000008B50068B0F1804F08D105482F
:10193000C16941F00101C161C06900F0010000907E
:1019400008BD00000010024070B5044690F83C004D
:10195000012817D0012584F83C50022084F83D006E
:101960002068826822F0770222F47F428260086851
:10197000502830D00DDC20284DD005DC98B310283D
:101980003BD148E0022070BD302844D0402834D1FB
:1019900039E0602828D0702806D0B0F5805F2CD0C0
:1019A000B0F5005F29D10AE0CB68D1E901212068B8
:1019B00000F049FC2068816841F0770109E0CB68BC
:1019C000D1E90121206800F03EFC2068816841F4E3
:1019D0008041816011E0CA684968206800F0E8FC35
:1019E0005021206807E016E0CA684968206800F0C6
:1019F000F0FC6021206800F030FC84F83D500020AD
:101A000084F83C0070BDCA684968206800F0D0FCCA
:101A100040212068EFE7226801461046EBE700000E
:101A200000B585B0002100910191029103910068F9
:101A3000B0F1804F1BD10F48816941F004018161F1
:101A40008069694600F0040004904FF40040009063
:101A50000220019003900848FFF760FA07484168A8
:101A600021F4407141F0E06141F48071416005B0C2
:101A700000BD0000001002400008014000000140CD
:101A800070B5044690F83C000D4601280AD00120AC
:101A900084F83C0042B1042A18D0082A2AD00C2A23
:101AA0004DD139E0022070BD206800F0DFFB2068D6
:101AB000816941F0080181612068816921F0040198
:101AC0008161206881692A69114311E0206800F072
:101AD000F5FB2068816941F40061816120688169BA
:101AE00021F480618161206881692A6941EA0221CB
:101AF000816124E0206800F00DFC2068C16941F09C
:101B00000801C1612068C16921F00401C161206838
:101B1000C1692A69114311E0206800F027FC2068A0
:101B2000C16941F40061C1612068C16921F480612B
:101B3000C1612068C1692A6941EA0221C1610020AE
:101B400084F83C0070BD10B5040003D094F83D004B
:101B500010B107E0012010BD002084F83C002046B1
:101B600000F01EF8022084F83D00211D206800F0DE
:101B700027FB012084F8460084F83E0084F83F00EB
:101B800084F8400084F8410084F8420084F843005F
:101B900084F8440084F8450084F83D00002010BD1E
:101BA0007047000010B50446022249B104290ED046
:101BB000082913D094F84100012816D0012010BD47
:101BC00094F83E000128F9D184F83E200FE094F803
:101BD0003F000128F2D184F83F2008E094F840004B
:101BE0000128EBD184F8402001E084F84120012253
:101BF000206800F01BFB0F492068884203D1426C2B
:101C000042F4004242642068884208D0B0F1804F1C
:101C100005D00949884202D00849884204D1816828
:101C200001F00701062903D0016841F001010160BC
:101C3000002010BD002C01400004004000080040BE
:101C400070477047F8B5026804461068D168536958
:101C500010F00F0F4FF0000553D003F0010601F410
:101C6000907737435FD0C20705D0CA0503D5226CF1
:101C700042F001022264420705D5DA0703D0226C44
:101C800042F002022264820705D5DA0703D0226CF3
:101C900042F004022264020707D501F02002324319
:101CA00003D0226C42F008022264226C002A34D055
:101CB000800604D5880602D5204600F0BCFB2068CB
:101CC0004069216CC0F38010090700D430B320466E
:101CD00000F099FB2068416949061BD5416921F054
:101CE00040014161A06BA8B158494163A06BFFF767
:101CF000A7F8002811D0A06B416B01B0BDE8F040FF
:101D0000084783060FD58B060DD52046BDE8F84061
:101D100000F091BB2046FFF794FFF8BD2046FFF787
:101D200090FF2564F8BD266B2023012E52D1C606F4
:101D300050D5CE064ED510685068009050694006C8
:101D40002AD5A16B086840680004000CEAD0A68D73
:101D50008642E7D9E0858869202818D0D06820F429
:101D60008070D0602068416921F0010141612068E4
:101D7000416921F04001416184F83E3025632068CB
:101D8000C16821F01001C160A06BFFF735F8A08D8C
:101D9000E18D401A81B219E0A08DE18D401A81B227
:101DA000E08D0028BED00029BCD0D06820F490700F
:101DB000D0602068426922F00102426184F83E301E
:101DC00025632068C26822F01002C2602046FFF737
:101DD00037FFF8BD05062BD50D0629D594F83D0033
:101DE0002128F6D1A068B0F5805F01D12069B0B19B
:101DF000206A411C2162216800784860E08C401E06
:101E00000004000CE084E4D12068C16821F0800166
:101E1000C1602068C16841F04001C160F8BD206A1E
:101E20000088C0F308005060206A801C2062E5E74B
:101E30004006F3D54806F1D5D168204621F040018F
:101E4000D16084F83D3000F0ADF8F8BDF72300080C
:101E500070B5040004D094F83D00002510B106E0F0
:101E6000012070BD84F83C50204600F023F8242067
:101E700084F83D002068C16821F40051C16020460B
:101E800000F034FB2068016921F490410161206871
:101E9000416921F02A0141612068C16841F4005183
:101EA000C1602564202084F83D0084F83E000020B5
:101EB00070BD000030B585B00024009401940294F8
:101EC00003940068184988422CD11848816941F46C
:101ED00080418161816901F480410491816941F00F
:101EE000040181618069124D00F0040004904FF4F8
:101EF000007000900220019003200390694628465C
:101F0000FFF70CF82815CDE900046946284602942D
:101F1000FFF704F8002211462520FFF769F9252074
:101F2000FFF758F905B030BD0038014000100240FD
:101F30000008014090F83E30202B0ED159B152B12B
:101F400090F83C30012B08D0012380F83C3000236E
:101F5000036300F027BB0120704702207047000098
:101F600010B500680C4988420DD10C490A790A2A3B
:101F700005D00B4B48781A54401C487003E00020F1
:101F8000487000F085FB054905480122091DBDE8A0
:101F900010404438FFF7CEBF003801400000002059
:101FA000E00000207047FEE73EB500241148009491
:101FB000019402940E498460016004730475012544
:101FC00005614FF460214460C161FEF7EBFD08B18B
:101FD00072B6FEE70220CDE9000569460294054885
:101FE000FEF7EEFC002801D072B6FEE73EBD000011
:101FF0000024014024000020F0B585B000241C48D6
:102000000094019402940394816941F0200181615C
:10201000816901F020010491816941F0040181612D
:102020008069144F00F004004FF400660490002211
:1020300031463846FFF76AF802250F480095CDE98A
:10204000010469463846FEF769FF01AA012000969F
:1020500082E8310069463846FEF760FF00221146EB
:102060000720FFF7C5F80720FFF7B4F805B0F0BD6B
:1020700000100240000801400000211010B58EB091
:1020800000240794089409940A940B941C21684630
:102090000C94FEF765F91E484FF08041C0E900142A
:1020A00040F2E731C0E90241802104618161FFF71C
:1020B0000BFC08B172B6FEE74FF48050079007A9F9
:1020C0001348FFF741FC08B172B6FEE71048FFF76E
:1020D0003AFD08B172B6FEE70B940BA90C480C94BC
:1020E000FFF7BEFB08B172B6FEE76020CDE9000441
:1020F00002940022694606480494FFF7C1FC08B127
:1021000072B6FEE70248FFF78BFC0EB010BD000070
:1021100054000020FEE7FEE770477047074910B5FE
:10212000087810B1401E087004E03220087004489E
:10213000FEF7FCFDBDE81040FEF7F4BF10000020E4
:102140002400002030B593B028216846FEF708F936
:1021500014210AA8FEF704F9002501200F95109517
:102160001195010412958DE8230004904FF4E010BE
:10217000CDE90810022407946846FFF7CDF908B1AD
:1021800072B6FEE70AA90F2081E831004FF48060A3
:10219000CDE90D0502210AA8FFF7D2F808B172B601
:1021A000FEE74FF4004011900F940FA8FFF752F88C
:1021B000002801D072B6FEE713B030BD70470000B2
:1021C000F0B50268164B174C174D4FF080479842F8
:1021D00005D0B84203D0A04201D0A84203D122F0DA
:1021E00070064A683243984205D0B84203D0A042F4
:1021F00001D0A84203D122F44074CA6822434C693A
:1022000022F08002224302608A68C2620A68826207
:10221000984201D10969016301214161F0BD0000CB
:10222000002C0140000400400008004010B501F0FF
:102230001F030121046A99408C430462016A9A4099
:102240001143016210BD10B5846842EA032224F4F0
:102250007F440A432243826010BD826822F07002EC
:102260000A4342F0070181607047000030B5026AFE
:1022700022F001020262026A4368846924F0730555
:102280000C682C4322F002058A682A430A4DA842B2
:102290000BD122F00805CA6823F440732A434D6924
:1022A00022F004021D438B692B434360846149681B
:1022B0004163026230BD0000002C014030B5026A6B
:1022C00022F010020262026A436884690D6824F4F5
:1022D000E64444EA05248D6822F0200242EA051211
:1022E0000B4DA8420ED1CD6822F0800242EA0512C1
:1022F0004D6923F4406343EA85038D6922F040026F
:1023000043EA85034360846149688163026230BDAA
:10231000002C014030B5026A22F480720262036A26
:102320004268C46923F4007324F073050C682C43DD
:102330008D6843EA05230C4DA8420ED1CD6823F4E5
:10234000006343EA05234D6922F4405242EA051234
:102350008D6923F4806342EA05124260C4614968D2
:10236000C163036230BD0000002C014030B5026A39
:1023700022F480520262046A4268C3690D6823F441
:10238000E64343EA05238D6824F4005444EA053407
:10239000064DA84204D14D6922F4804242EA8512DA
:1023A0004260C36149680164046230BD002C014091
:1023B00010B5036A046A24F001040462846924F0FD
:1023C000F00444EA021423F00A020A438461026220
:1023D00010BD10B5036A23F0100303628369046A19
:1023E00023F4704343EA023224F0A00343EA0111CC
:1023F0008261016210BD10B5406A0021C185C184AF
:10240000FFF71FFC10BD0168CA6822F49072CA6011
:1024100001684A6922F001024A61016B012904D175
:102420000168CA6822F01002CA60202180F83E10BC
:1024300000210163704708B590F83E10222901D0B1
:10244000022008BD82684FF480539A4201D101698D
:1024500021B1816A9A421BD04AB10AE00268816ABE
:102460005268C2F308020A80816A891C08E0026986
:1024700072B10268526802F07F020A70816A491CD8
:102480008162C18D491E0904090CC18503D019E080
:1024900002685268F1E70168CA6822F02002CA6047
:1024A0000168CA6822F48072CA6001684A6922F031
:1024B00001024A61202180F83E10016B012903D0FE
:1024C000FFF74EFD002008BD002101630168CA68C6
:1024D00022F01002CA6001680A68D20602D50A68B2
:1024E00049680091818DFFF7ABFBEBE770B50446BF
:1024F00000680169E26821F44051114301612169DA
:10250000A0680843616908432168CA6841F20C6306
:102510009A430243CA6020684169A26921F440716C
:10252000114341611E492068884202D1FEF7AEFF87
:1025300001E0FEF79BFF00EBC00101EB00126068B9
:1025400064218000B2FBF0F3B3FBF1F36FF01806E7
:102550007343B2FBF0F5B2FBF0F605EB83053223D3
:1025600003EB0515B5FBF1F5B6FBF1F605F0F0054B
:1025700005EB0615B2FBF0F6B2FBF0F0B0FBF1F0A4
:102580006FF01802504306EB800003EB0010B0FB25
:10259000F1F0216800F00F002844886070BD000051
:1025A0000038014081628285C285002101642222B7
:1025B00080F83E2080F83C100168CA6842F48072BE
:1025C000CA6001684A6942F001024A610068C16854
:1025D00041F02001C1600020704700000148FFF772
:1025E00031BB00009C000020FEE70907090E00280F
:1025F00004DB00F1E02080F80014704700F00F00C9
:1026000000F1E02080F8141D70470000FEF792FDF5
:10261000FFF798FDFFF7F0FCFFF7C6FCFFF72EFD74
:1026200019481849002401604FF4E131C0E9011450
:102630000C21C460C0E904418461C461FFF708FC57
:1026400008B172B6FEE710484FF400414838FFF772
:10265000A9FA01220D490C48FFF76CFC0B480A4A05
:10266000001F483A01788378012BFCD141B1012940
:10267000F9D183685B42836015682B648470F2E74C
:102680008368F9E7003801409C0000200400002026
:1026900070B51248002101250078114C302804D073
:1026A000312809D032280DD016E02078012801D039
:1026B000257011E021700FE0E07808B1E1700BE0C7
:1026C000E57009E0064B07A108331A1D0348FDF722
:1026D00083FDA068401EA060A57070BDE0000020D2
:1026E00000000020257520257500000010B5002988
:1026F0000AD00878002807D005487844FEF7A2F8E9
:10270000002801D0002010BD0248784410BD000010
:10271000560000004E000000000000000000000015
:102720000102030406070809000000000102030477
:102730006028000800000020240000002801000894
:102740008428000824000020340700004401000809
:102750001001000043000000F8FFFFFF0040404070
:102760004040404040404141414141404040404064
:102770004040404040404040404040404005020210
:1027800002020202020202020202020202202020CF
:10279000202020202020200202020202020290902B
:1027A0009090909010101010101010101010101029
:1027B000101010101010101002020202020288887D
:1027C0008888888808080808080808080808080889
:1027D0000808080808080808020202024000000071
:1027E00000000000000000000000000000000000E9
:1027F00000000000000000000000000000000000D9
:1028000000000000000000000000000000000000C8
:1028100000000000000000000000000000000000B8
:1028200000000000000000000000000000000000A8
:102830000000000000000000000000000000000098
:102840000000000000000000000000000000000088
:102850000000000000000000000000000000000078
:102860000000000000000000000000000000000068
:102870003200000001000000100000000000000015
:042880000024F4003C
:04000005080000ED02
:00000001FF
